{
  "contractName": "ElectricityBill",
  "abi": [
    {
      "inputs": [
        {
          "internalType": "uint256",
          "name": "_ratePerUnit",
          "type": "uint256"
        }
      ],
      "stateMutability": "nonpayable",
      "type": "constructor"
    },
    {
      "anonymous": false,
      "inputs": [
        {
          "indexed": true,
          "internalType": "address",
          "name": "user",
          "type": "address"
        },
        {
          "indexed": false,
          "internalType": "uint256",
          "name": "unitsUsed",
          "type": "uint256"
        },
        {
          "indexed": false,
          "internalType": "uint256",
          "name": "billAmount",
          "type": "uint256"
        }
      ],
      "name": "BillGenerated",
      "type": "event"
    },
    {
      "inputs": [
        {
          "internalType": "address",
          "name": "",
          "type": "address"
        }
      ],
      "name": "bills",
      "outputs": [
        {
          "internalType": "uint256",
          "name": "previousReading",
          "type": "uint256"
        },
        {
          "internalType": "uint256",
          "name": "currentReading",
          "type": "uint256"
        },
        {
          "internalType": "uint256",
          "name": "unitsUsed",
          "type": "uint256"
        },
        {
          "internalType": "uint256",
          "name": "billAmount",
          "type": "uint256"
        }
      ],
      "stateMutability": "view",
      "type": "function"
    },
    {
      "inputs": [],
      "name": "owner",
      "outputs": [
        {
          "internalType": "address",
          "name": "",
          "type": "address"
        }
      ],
      "stateMutability": "view",
      "type": "function"
    },
    {
      "inputs": [],
      "name": "ratePerUnit",
      "outputs": [
        {
          "internalType": "uint256",
          "name": "",
          "type": "uint256"
        }
      ],
      "stateMutability": "view",
      "type": "function"
    },
    {
      "inputs": [
        {
          "internalType": "uint256",
          "name": "previousReading",
          "type": "uint256"
        },
        {
          "internalType": "uint256",
          "name": "currentReading",
          "type": "uint256"
        }
      ],
      "name": "generateBill",
      "outputs": [],
      "stateMutability": "nonpayable",
      "type": "function"
    },
    {
      "inputs": [],
      "name": "getBill",
      "outputs": [
        {
          "components": [
            {
              "internalType": "uint256",
              "name": "previousReading",
              "type": "uint256"
            },
            {
              "internalType": "uint256",
              "name": "currentReading",
              "type": "uint256"
            },
            {
              "internalType": "uint256",
              "name": "unitsUsed",
              "type": "uint256"
            },
            {
              "internalType": "uint256",
              "name": "billAmount",
              "type": "uint256"
            }
          ],
          "internalType": "struct ElectricityBill.Bill",
          "name": "",
          "type": "tuple"
        }
      ],
      "stateMutability": "view",
      "type": "function"
    }
  ],
  "bytecode": "0x608060405234801561000f575f80fd5b506040516107a03803806107a0833981810160405281019061003191906100b4565b335f806101000a81548173ffffffffffffffffffffffffffffffffffffffff021916908373ffffffffffffffffffffffffffffffffffffffff16021790555080600181905550506100df565b5f80fd5b5f819050919050565b61009381610081565b811461009d575f80fd5b50565b5f815190506100ae8161008a565b92915050565b5f602082840312156100c9576100c861007d565b5b5f6100d6848285016100a0565b91505092915050565b6106b4806100ec5f395ff3fe608060405234801561000f575f80fd5b5060043610610055575f3560e01c80630cfba5561461005957806360fcebf61461008c5780638da5cb5b146100a8578063bebd9a49146100c6578063c0ce67e4146100e4575b5f80fd5b610073600480360381019061006e9190610394565b610102565b60405161008394939291906103d7565b60405180910390f35b6100a660048036038101906100a19190610444565b61012e565b005b6100b061026d565b6040516100bd9190610491565b60405180910390f35b6100ce610290565b6040516100db919061050c565b60405180910390f35b6100ec61030c565b6040516100f99190610525565b60405180910390f35b6002602052805f5260405f205f91509050805f0154908060010154908060020154908060030154905084565b81811015610171576040517f08c379a000000000000000000000000000000000000000000000000000000000815260040161016890610598565b60405180910390fd5b5f828261017e91906105e3565b90505f6001548261018f9190610616565b905060405180608001604052808581526020018481526020018381526020018281525060025f3373ffffffffffffffffffffffffffffffffffffffff1673ffffffffffffffffffffffffffffffffffffffff1681526020019081526020015f205f820151815f01556020820151816001015560408201518160020155606082015181600301559050503373ffffffffffffffffffffffffffffffffffffffff167e1815bcfb7a5b037661c6aa1d39825171a124b32f99e3fc230765858b21d2da838360405161025f929190610657565b60405180910390a250505050565b5f8054906101000a900473ffffffffffffffffffffffffffffffffffffffff1681565b610298610312565b60025f3373ffffffffffffffffffffffffffffffffffffffff1673ffffffffffffffffffffffffffffffffffffffff1681526020019081526020015f206040518060800160405290815f82015481526020016001820154815260200160028201548152602001600382015481525050905090565b60015481565b60405180608001604052805f81526020015f81526020015f81526020015f81525090565b5f80fd5b5f73ffffffffffffffffffffffffffffffffffffffff82169050919050565b5f6103638261033a565b9050919050565b61037381610359565b811461037d575f80fd5b50565b5f8135905061038e8161036a565b92915050565b5f602082840312156103a9576103a8610336565b5b5f6103b684828501610380565b91505092915050565b5f819050919050565b6103d1816103bf565b82525050565b5f6080820190506103ea5f8301876103c8565b6103f760208301866103c8565b61040460408301856103c8565b61041160608301846103c8565b95945050505050565b610423816103bf565b811461042d575f80fd5b50565b5f8135905061043e8161041a565b92915050565b5f806040838503121561045a57610459610336565b5b5f61046785828601610430565b925050602061047885828601610430565b9150509250929050565b61048b81610359565b82525050565b5f6020820190506104a45f830184610482565b92915050565b6104b3816103bf565b82525050565b608082015f8201516104cd5f8501826104aa565b5060208201516104e060208501826104aa565b5060408201516104f360408501826104aa565b50606082015161050660608501826104aa565b50505050565b5f60808201905061051f5f8301846104b9565b92915050565b5f6020820190506105385f8301846103c8565b92915050565b5f82825260208201905092915050565b7f496e76616c6964206d657465722072656164696e6773000000000000000000005f82015250565b5f61058260168361053e565b915061058d8261054e565b602082019050919050565b5f6020820190508181035f8301526105af81610576565b9050919050565b7f4e487b71000000000000000000000000000000000000000000000000000000005f52601160045260245ffd5b5f6105ed826103bf565b91506105f8836103bf565b92508282039050818111156106105761060f6105b6565b5b92915050565b5f610620826103bf565b915061062b836103bf565b9250828202610639816103bf565b915082820484148315176106505761064f6105b6565b5b5092915050565b5f60408201905061066a5f8301856103c8565b61067760208301846103c8565b939250505056fea26469706673582212203b21d48d213369281ae517e3628754af7e3dc5fc04575b9f431fbb9c4d8f575664736f6c63430008150033",
  "immutableReferences": {},
  "source": "// SPDX-License-Identifier: MIT\r\npragma solidity ^0.8.0;\r\n\r\ncontract ElectricityBill {\r\n    address public owner;\r\n    uint256 public ratePerUnit;  // Cost per unit of electricity\r\n\r\n    // Structure to store user bill data\r\n    struct Bill {\r\n        uint256 previousReading;\r\n        uint256 currentReading;\r\n        uint256 unitsUsed;\r\n        uint256 billAmount;\r\n    }\r\n\r\n    mapping(address => Bill) public bills;\r\n\r\n    event BillGenerated(address indexed user, uint256 unitsUsed, uint256 billAmount);\r\n\r\n    constructor(uint256 _ratePerUnit) {\r\n        owner = msg.sender;\r\n        ratePerUnit = _ratePerUnit;\r\n    }\r\n\r\n    // Function to generate bill based on readings\r\n    function generateBill(uint256 previousReading, uint256 currentReading) public {\r\n        require(currentReading >= previousReading, \"Invalid meter readings\");\r\n\r\n        uint256 unitsUsed = currentReading - previousReading;\r\n        uint256 billAmount = unitsUsed * ratePerUnit;\r\n\r\n        bills[msg.sender] = Bill(previousReading, currentReading, unitsUsed, billAmount);\r\n        emit BillGenerated(msg.sender, unitsUsed, billAmount);\r\n    }\r\n\r\n    // Function to get the bill details\r\n    function getBill() public view returns (Bill memory) {\r\n        return bills[msg.sender];\r\n    }\r\n}\r\n\r\n",
  "sourcePath": "D:\\blockchain\\dapp\\dapp\\contracts\\ElectricityBill.sol",
  "compiler": {
    "name": "solc",
    "version": "0.8.21+commit.d9974bed.Emscripten.clang"
  },
  "schemaVersion": "3.4.16",
  "updatedAt": "2024-11-23T20:16:55.467Z",
  "devdoc": {
    "kind": "dev",
    "methods": {},
    "version": 1
  },
  "userdoc": {
    "kind": "user",
    "methods": {},
    "version": 1
  }
}